:0300000002090AE8
:0C090A00787FE4F6D8FD75810D0208002E
:0809160053494C49434F4E00C8
:10086700E4F50CF50D900000AF82AE83EE3395E012
:10087700FDFCE4FBFA7901F8D31208B04003A3802A
:0F088700E7050DE50D7002050C640E450C70D6EB
:01089600223F
:1008C6007F387E001208EE1208677F017E0012084C
:1008D600EE1208677F807E001208EE1208677F0C12
:0808E6007E001208EE02086713
:0E08EE00D292C290C2918FA0120867C29222CD
:100835008B098A0A890BAB09AA0AA90B120897FF2B
:10084500601F1208FC3099FDC299AB09050BE50B39
:10085500AA0A7002050A14F9120897F599C293803D
:02086500D5229A
:0E08FC00D292D290C2918FA0120867C29222AF
:10080000758920759850758DFDD28E1208C67F802F
:100810007E001208EE7BFF7A0979161208353098AF
:10082000FD859908C298AF081208FC85089930998F
:05083000FDC29980E902
:10089700BB010689828A83E0225002E722BBFE025F
:0908A700E32289828A83E4932292
:1008B000EB9FF5F0EA9E42F0E99D42F0EC6480C8BF
:0608C00064809845F0225F
:00000001FF
