:030000000209C72B
:0C09C700787FE4F6D8FD75811702092541
:0809E30053494C49434F4E00FB
:0F09B800759850758920758DFDD28EE4F58722D4
:100995008B158A168917AB15AA16A9171208F6FF23
:1009A50060101209D374012517F517E43516F516ED
:0309B50080E422B9
:0809D3008F993099FDC29922B1
:0809DB003098FDC298AF99228B
:10096800E4F513F514900000AF82AE83E4FCFD7B40
:10097800FF7AFFF9F8D312090F4003A380EA0514A0
:0C098800E514700205136404451370D9D7
:010994002240
:10092500780A7C007D007BFF7A0979E37E007F08E9
:100935001208D01209B8E4F508F509740A2509F872
:10094500E6FF601D1209D3C2B31209DB8F128512AF
:10095500A0120968E4F5A00509E50970DE0508801F
:03096500DA80FE37
:10080000E709F608DFFA8046E709F208DFFA803EDA
:1008100088828C83E709F0A3DFFA8032E309F608C7
:10082000DFFA8078E309F208DFFA807088828C832F
:10083000E309F0A3DFFA806489828A83E0A3F608E3
:10084000DFFA805889828A83E0A3F208DFFA804CBD
:1008500080D280FA80C680D4806980F28033801094
:1008600080A680EA809A80A880DA80E280CA8033FD
:1008700089828A83ECFAE493A3C8C582C8CCC58375
:10088000CCF0A3C8C582C8CCC583CCDFE9DEE78045
:100890000D89828A83E493A3F608DFF9ECFAA9F0C4
:1008A000EDFB2289828A83ECFAE0A3C8C582C8CC1A
:1008B000C583CCF0A3C8C582C8CCC583CCDFEADE33
:1008C000E880DB89828A83E493A3F208DFF980CC95
:1008D00088F0EF60010E4E60C388F0ED2402B4048E
:1008E0000050B9F582EB2402B4040050AF23234535
:0608F00082239008507302
:1008F600BB010689828A83E0225002E722BBFE0200
:09090600E32289828A83E4932232
:10090F00EB9FF5F0EA9E42F0E99D42F0EC6480C85F
:06091F0064809845F022FF
:00000001FF
