:030000000208C033
:0C08C000787FE4F6D8FD75810C02082F4B
:0A08CC0053494C49434F4E0D0A00FA
:1008AE00759850758920758DFD758BFDD28E758767
:0208BE00802296
:100859008B0A8A0B890CAB0AAA0BA90C120800FF98
:1008690060101208D67401250CF50CE4350BF50B54
:0308790080E422F6
:0808D6008F993099FDC29922AF
:100897003098FDC298AE99AF061208D68E9012080E
:0708A7007CE4F59002087CDF
:10087C00900000AF82AE83E4FCFD7BA07A86790108
:0A088C00F8D31208194003A380E915
:01089600223F
:10082F001208AE7BFF7A0879CC120859120897E4A8
:10083F00F508F50912087C0509E50970020508C3DA
:0A084F009405E508940040EC80E2F7
:10080000BB010689828A83E0225002E722BBFE02F6
:09081000E32289828A83E4932229
:10081900EB9FF5F0EA9E42F0E99D42F0EC6480C856
:0608290064809845F022F6
:00000001FF
