:030000000208B93A
:0C08B900787FE4F6D8FD75810B02080082
:0A08C50053494C49434F4E0D0A0001
:1008A700759850758920758DFD758BFDD28EE4F591
:0208B700872296
:10084E008B098A0A890BAB09AA0AA90B12088EFF1B
:10085E0060101208CF7401250BF50BE4350AF50A6A
:03086E0080E42201
:0808CF008F993099FDC29922B6
:0708D7003098FDC298AF99B3
:0108DE0022F7
:10087100E4FFFEE4FDFC0DBD00010CBC13F8BD88D6
:0C088100F50FBF00010EEF640E4E70E793
:01088D002248
:10080000E4F5081208A77BFF7A0879C512084E3074
:1008100098191208D7BF4105750801800EBF42051F
:100820007508028006BF4303750803E508B4010C90
:10083000D290120871C29012087180D3E508B402F8
:0E08400004D29080CAE508B403C5C29080C1FE
:10088E00BB010689828A83E0225002E722BBFE0268
:09089E00E32289828A83E493229B
:00000001FF
