:030000000208ED06
:0C08ED00787FE4F6D8FD75810B0208DE70
:0908F900C284C294C2A4C2B4225C
:040800007F467E00B1
:040804008E088F09C2
:10080800E4F50AF50BC3E50B9509E50A95085023AD
:10081800900000AF82AE83E4FCFD7BFF7AFFF9F81D
:10082800D31208C84003A380EA050BE50B70D60570
:030838000A80D261
:01083B00229A
:10083C00D28430841BD280120800C280D2817F1CEB
:10084C007E00120804C281D282D283120800C282B6
:03085C00C2842231
:10085F00D29430941BD290120800C290D2917F1C78
:10086F007E00120804C291D292D293120800C29253
:03087F00C29422FE
:10088200D2A430A41BD2A0120800C2A0D2A17F1C05
:100892007E00120804C2A1D2A2D2A3120800C2A2F0
:0308A200C2A422CB
:1008A500D2B430B41BD2B0120800C2B0D2B17F1C92
:1008B5007E00120804C2B1D2B2D2B3120800C2B28D
:0308C500C2B42298
:0F08DE001208F912083C12085F1208820208A5DE
:1008C800EB9FF5F0EA9E42F0E99D42F0EC6480C8A7
:0608D80064809845F02247
:00000001FF
