:030000000208DA19
:0C08DA00787FE4F6D8FD7581100208005C
:10089700E4F50FF510900000AF82AE83E4FCFD7B1A
:1008A700FF7AFFF9F8D31208C44003A380EA0510C2
:0C08B700E5107002050F640E450F70D9AB
:0108C3002212
:0908E600C290D291C292D2932279
:1008000075085375093F85090A1208E6E4F50BF5EA
:100810000CC37407950CFFF8E508088002C313D8D1
:10082000FC750D005401F50E120897D292E50E5496
:1008300001FFE50925E04FF509120897C292120859
:1008400097050CE50C7002050BC39408E50B9400AA
:1008500040BFD2958509A0850A09E4F50BF50CC3C4
:100860007407950CFFF8E509088002C313D8FC7ED5
:10087000005401FFD2925401FDE50825E04DF50832
:10088000C292050CE50C7002050B6408450B70CF95
:07089000D2948508B080FE40
:1008C400EB9FF5F0EA9E42F0E99D42F0EC6480C8AB
:0608D40064809845F0224B
:00000001FF
