:030000000208995A
:0C089900787FE4F6D8FD75810A020800A3
:0A08A50053494C49434F4E0D0A0021
:10088700759850758920758DFD758BFDD28EE4F5B1
:020897008722B6
:10082E008B088A09890AAB08AA09A90A12086EFF61
:10083E0060101208AF7401250AF50AE43509F509AE
:03084E0080E42221
:0808AF008F993099FDC29922D6
:0708B7003098FDC298AF99D3
:0108BE002217
:10085100E4FFFEE4FDFC0DBD00010CBC13F8BD88F6
:0C086100F50FBF00010EEF640E4E70E7B3
:01086D002268
:100800001208877BFF7A0879A512082E1208B7AB69
:1008100007BB410CD290120851C29012085180F1CE
:0E082000BB4204D29080EABB43E7C29080E363
:10086E00BB010689828A83E0225002E722BBFE0288
:09087E00E32289828A83E49322BB
:00000001FF
